S01400006E63702D756172742D73775F332E7333370D
S31500004000801C0020C1600100F99F0000FD9F000098
S31500004010A70A0A010042000004180FAC60674701B6
S31500004020000000000000000000000000000000008A
S3150000403000000000EC340300000000000000000057
S315000040400000000000000000FFFFFFFFFFFFFFFF72
S31500004050FFFFFFFF00600B000000000000000000F3
S31500004060FFFFFFFFFFFFFFFF8000000000000000D2
S31500004070000000000000000000000000000000003A
S315000040800000000000000000CC440020CC440020CA
S31500004090801C00201C6803005834030020130020F5
S311000040A0F312002000E00B0000000000FE
S31500004200801C0020C1600100F99F0000FD9F000096
S3150000421049A9000001A0000009A00000BD6001003E
S31500004220BD600100BD600100BD600100BD60010010
S315000042300DA00000BD600100BD600100BD60010071
S3150000424048A1000048A1000048A1000048A10000C4
S3150000425048A10000B15A0000E167000048A1000033
S3150000426048A1000048A10000B558000009B90000A7
S3150000427048A1000048A1000048A1000048A1000094
S3150000428048A1000048A1000048A10000BD6001004F
S3150000429048A100001151000048A1000048A10000FB
S315000042A048A1000011520000E951000048A1000099
S315000042B048A1000048A1000048A10000813B010080
S315000042C00D3B0100093B0100493201007D3B010025
S315000042D0113B0100313B0100153B01009D2201000D
S315000042E0C53B010048A1000048A1000089A40000C8
S315000042F048A1000048A1000048A10000BD600100DF
S3150000430048A1000048A1000048A1000048A1000003
S3150000431048A1000048A1000048A1000048A10000F3
S3150000432048A1000048A1000048A1000048A10000E3
S3090000433048A100009A
S31500004334F8B500BFF8BC08BC9E467047F8B500BF88
S31500004344F8BC08BC9E46704710B5054C237833B9B3
S31500004354044B13B1044800E000BF0123237010BDD1
S3150000436454230020000000004061030008B5034BFD
S315000043741BB10349034800E000BF08BD000000006C
S315000043845823002040610300154B002B08BF134B34
S315000043949D46A3F5803A00218B460F461348144ADE
S315000043A4121A2FF033F80F4B002B00D098470E4B00
S315000043B4002B00D098470020002104000D000D4872
S315000043C4002802D00C4800E000BF2EF0E1FF2000D8
S315000043D4290016F021F82EF0C7FF00BF00000800E0
S315000043E4801C002000000000000000005423002070
S315000043F4CC4400200000000000000000002307B5A4
S31500004404CDE90033012369464FF0FF308DF80230C1
S315000044140AF0E2F9003018BF012003B05DF804FB8E
S3150000442400207047002814BF022000207047012096
S31500004434704701207047012814BF022000207047EE
S31500004444012070472DE9F84F80460D4614469946DB
S31500004454164E06F1010A0DB9BDE8F88F102D4FF07E
S315000044640D02494650462F4628BF102705F06CFE1C
S315000044740123337000230D48F473B37325F068FFEA
S31500004484424601340A495FFA87FBE4B212F8013B5B
S3150000449411F8010F434002F8013CA2EB0803DBB21A
S315000044A45B45F3D3ED1BADB29046D4E774230020ED
S315000044B4732300202DE9F04F4FF00209364D85B0E5
S315000044C403930F9B174601900D220E460146681C66
S315000044D4BDF83880029305F037FE49234C46AA46B8
S315000044E42B7028464FEA1823AB7385F80F8025F006
S315000044F42FFF2B7883EA17232B706B787B406B7026
S315000045044FF0000B21E0C4F1100CA7EB0B031FFACC
S315000045148CFC9BB2634528BF63463046A11B00EB67
S31500004524010C5FFA8CF2A0EB060C1FFA8CFC9C457E
S315000045341BD31C44E4B29B44102C1E441FFA8BFB71
S3150000454403D1284625F004FF0024BB45DBD314B170
S31500004554504625F0FDFEB9F1010F4FF00004039E0D
S3150000456447460BD04FF00109CAE710F801CB1AF8F9
S3150000457402E08CEA0E0C0AF802C0D0E70298042284
S31500004584054905F0E1FD22460421019B029805B088
S31500004594BDE8F04FFFF756BF74230020F7B5099F17
S315000045A4BDF820400646CDE900471D46FFF782FFC9
S315000045B42CB13346012221462846FFF743FF00204B
S315000045C403B0F0BD2DE9F7431E46054688469146DD
S315000045D4BDF828700D4C0346394630460122FFF7D4
S315000045E431FF33464A4641462846CDE90074FFF773
S315000045F461FF042221460B9805F009FE002814BF2A
S315000046047E20002003B0BDE8F08300BF70230020A5
S315000046142DE9F3410C4615461E468046084F991867
S3150000462421443846042205F08FFDCDE9006763195D
S315000046342A4621464046FFF7C5FF02B0BDE8F08191
S315000046448423002000207047012070470120704712
S3150000465400207047012070470020704700207047F3
S31500004664012070470020704701207047704770474B
S31500004674002814BF02200020704700207047000065
S31500004684032310B50F4C4FF48062C4E904330E4B78
S315000046940E49E3610023A16121660D49E01DC4E9C9
S315000046A419120C49A3626362E3622367E3666367D4
S315000046B422622EF0B3FE084920462EF0AFFE2023D8
S315000046C4A37110BD9C3E00208827002058340300A7
S315000046D48823002061340300653403002DE9F84F74
S315000046E41F4B16461A7881468A4698460AB9FFF73A
S315000046F4C7FF182707FB09873D6FD7F86CB05D45E0
S315000047042BD9BC6E796E641BB44228BF3446294447
S31500004714504622462EF06FFEBB6E2544AB4208BFC0
S315000047240025A244361BABEB050B5E4528BF5E464F
S3150000473456B1182303FB0983596E32462944504661
S315000047442EF059FE3444354424B1182303FB09885A
S31500004754C8F870502046BDE8F88F0024E3E700BF90
S315000047649C3E002010B50B46EFF311844FF0200158
S3150000477481F311881946FFF7B1FF84F3118810BD40
S315000047842DE9F84F144D9B462B7881468846924670
S315000047940BB9FFF775FFEFF3118C4FF0200181F38E
S315000047A41188002018236F6903FB0054666E2EB12E
S315000047B401308742F8DC4FF0FF3009E08742FADD2A
S315000047C4C4E91898C4F868A02667E666C4F874B005
S315000047D48CF31188BDE8F88F9C3E0020FFF750BF8C
S315000047E470B54FF060441A4B00261A68194D42F012
S315000047F401021A60DA680C2042F08072DA60164B05
S31500004804C4F8B03F0223C4F8006EC4F8806EC5F83D
S31500004814F03002F077F9114B00F5D52000F2FC4098
S31500004824B0FBF3F00E4A0F4B01382861C4F8406E12
S315000048341A600D4BC4F8803E4FF48073C5F80433F8
S31500004844D4F8003E43F48073C4F8003E70BD00BF44
S31500004854F0ED00E0000004E055CEACC5F8590D00BB
S31500004864FF030040001000E00D00010010B5012414
S315000048740E4B00201C6002F0D1FC234604220321C7
S31500004884002002F013FD204613F0FCFDFFF7A8FFFD
S3150000489413F0FEFDFFF7A2FF234640220449054814
S315000048A4FFF76EFF044B1860C00F10BD44D40340DD
S315000048B4882B00206C340300181E0020024B186855
S315000048C4003018BF01207047F0ED00E0D123054AFF
S315000048D4037013784170090A8170591CC3701170F2
S315000048E404207047C82B00202DE9F74F354E0746A4
S315000048F433681C5C032C63D9DFF8CC8011F0E0FC30
S315000049044FF6FF7A0025C1460534E4B20190D8F883
S3150000491400204AB1AC4207D911F0D2FC019BC01A5F
S3150000492480B2B0F5FA7F05D9601B18BF012003B029
S31500004934BDE8F08F002D3DD0012D1DD14FF0020BA7
S315000049443268D55D4FF06042D2F8801ECB0711D590
S315000049541146D9F80C0040F08070C9F80C00D1F863
S31500004964000E40F48070C1F8000E086A0028F0D0EA
S3150000497482F820505D46CAE7E21E05F1010B954216
S315000049845FFA8BFB02D15FFA8AF5DBE7A21E95423A
S3150000499402D1CAF30725D5E7621E95420ED0A91E99
S315000049A4C9B238461CF07EFF5146054605F0B8FAF2
S315000049B48246C7E75B254FF0010BC3E75D25C1E7D8
S315000049C40120B4E7941E0020F0ED00E010B50B4B77
S315000049D490B0402269461868FFF7C4FE58B1C1B2C8
S315000049E468461CF0E9FE04460146122017F04AFF09
S315000049F420461CF083FD10B010BD00BF181E002019
S31500004A0470B5164685180AB9304470BD01F00F0317
S31500004A140A2B34BF30243724013A2344090905F804
S31500004A24013DD2B2EFE70000F0B5F9B100281CDA77
S31500004A342D23B0F1004F137000D04042012115E040
S31500004A44801B8642ECB205F10105F9D904B927B1F8
S31500004A5401274D1C30345454E9B20133092B09D1D2
S31500004A64303050540131C8B2F0BD002100231F4636
S31500004A74DFF808C05CF823600025E2E77C34030015
S31500004A842DE9F04F4FF0000B95B002AC81468A46F3
S31500004A9417461D465E46A0463B7863B902ABE41A48
S31500004AA4E4B2224619465046C847002840F093808F
S31500004AB43444E0B290E0252B13D0BBF1000F14D19F
S31500004AC42370013412AB9C426DD3A4EB0804E4B208
S31500004AD4224641465046C84700287CD12644F6B2B1
S31500004AE460E0BBF1000F00D101373B78632B00F087
S31500004AF492801BD8392B09D8302B80F09E80002B4E
S31500004B04CCD0252B51D04FF0000BDBE7582B00F00F
S31500004B148B80622BF7D14FF0000B2B6801936B68E7
S31500004B240093009B9B4543D10835ECE7702B1ED0C0
S31500004B3417D8642B01D06C2BE5D16C2B05F1040B33
S31500004B4428686CD17B78752B14BF0121002101D014
S31500004B54642B00D101372246FFF766FF04445D4605
S31500004B64D1E7752BE9D0782B5ED0732BCBD1A4EB90
S31500004B740804E4B2224602A9504605F1040B2D6846
S31500004B84C84740BB2644F6B2C4B22B5D0130002BA5
S31500004B94FAD1224629465046C847E0B95D468346BF
S31500004BA42644F6B24446013776E723700134AAE771
S31500004BB4019B204613F80B100222FFF721FF12ABCC
S31500004BC4984204460ED3A0EB0804E4B222464146BA
S31500004BD45046C84718B1002015B0BDE8F08F2644EA
S31500004BE44446F6B2009B013B5B4582BF20232370FB
S31500004BF4013412AB9C420BD3A4EB0804E4B2224664
S31500004C0441465046C8470028E5D126444446F6B2F4
S31500004C140BF1010B85E72B6804352370C6E7752B6A
S31500004C240CBF0021012196E7204602222978FFF7CE
S31500004C34E7FE05F1040B044691E77A7802F0DF02F9
S31500004C44582A19D1322B07F1010B09D10422204627
S31500004C5429882F1DFFF7D4FE3D4604465F4652E7DA
S31500004C64342B09D12F1D2D680422290C2046FFF769
S31500004C74C7FE0422A9B2EDE74FF0010B22E70000BC
S31500004C842DE9F04F9B46584B85B01B78064689465E
S31500004C941546109F9DF844A0DDF85080002B00F0C7
S31500004CA49280072A00F291800E9B002B00F08D80E3
S31500004CB40F9B002B00F08980129BB3F5006F00F365
S31500004CC48480012801D1002F7FD0484B03EB0513C4
S31500004CD41B7B002B7BD0464C1022002168462EF00D
S31500004CE495FB04EB45141022B9F1000F5CD149463B
S31500004CF420462EF08BFBA37843F01003A370E378D1
S31500004D0443F03003E370BAF1000F03D1DBB243F092
S31500004D140303E37036496A01129B885A013B63F325
S31500004D240E100E9B01EB020C8852CCF808300F9B38
S31500004D349DF84C10CCF804309CF80330012E61F336
S31500004D448303CDF800B08CF8033042D113230CF161
S31500004D54100ECCF80C309CE80F008EE80F006FF0B4
S31500004D640301DCF81C20B9F1010F61F39F02CCF8B2
S31500004D741C20CCF8147004D10F9BCCF80470CCF82A
S31500004D841830002719492A018B1841F80280159A10
S31500004D9428465A609F605E732246694602F016FBF7
S31500004DA4384605B0BDE8F08F002120462EF02EFBD4
S31500004DB41023A3700323E370BAF1000FAAD1DBB268
S31500004DC443F03003A5E70B48EBE70B48E9E70B484C
S31500004DD4E7E7B8F1000FD4D19CF8023068F3041366
S31500004DE48CF80230CDE700BF4C2D0020CC2B0020E0
S31500004DF44C2C0020028000F0018000F0078000F0B7
S31500004E0438B5104B05461B78BBB1C0B102F069F941
S31500004E1400230D4901EB0312147B3CB92B600123DB
S31500004E241460137302F063F9204638BD0133082B6E
S31500004E34F0D102F05CF90548F7E70548F5E70548BF
S31500004E44F3E700BF4C2D0020CC2B0020048000F09B
S31500004E54028000F0018000F038B502F042F9002328
S31500004E6405460A4AD1180C7B5CB91033802BF9D15C
S31500004E7402F05EFA064B28461C7002F038F920460A
S31500004E8438BD284602F033F90248F9E7CC2B002056
S31500004E944C2D0020058000F00D4B10B51B78044600
S31500004EA493B1072812D802F01CF90A4B03EB04133A
S31500004EB41A7B2AB100241C7302F019F9204610BD8E
S31500004EC402F015F90448FAE70448F8E70448F6E757
S31500004ED44C2D0020CC2B0020068000F0028000F030
S31500004EE4018000F0164B13B51868002301908DF865
S31500004EF4043002F0F6F8134B1C7824B102F0F7F8EC
S31500004F04114802B010BD01221A7002F0F0F80F4BDE
S31500004F141C731C7783F82C4083F83C4083F84C4080
S31500004F2483F85C4083F86C4083F87C4004230DEBE3
S31500004F3403008DF8073002F01FFA2046E1E700BFB0
S31500004F44A03403004C2D0020038000F0CC2B00205D
S31500004F5410B588B00E9C009207940D9C02460694E8
S31500004F649DF8304005940B9C04949DF828400394C6
S31500004F740024CDE9013420460B462146FFF780FE86
S31500004F8408B010BD10B588B00E9C009207940D9C15
S31500004F94024606949DF8304005940B9C04949DF8B3
S31500004FA4284003940024CDE9013420460B46012110
S31500004FB4FFF766FE08B010BD08B50A4B1B785BB157
S31500004FC407280BD8084B03EB00131B7B43B10021C6
S31500004FD402F0C2F9002008BD0448FCE70448FAE7D9
S31500004FE40448F8E74C2D0020CC2B0020028000F06A
S31500004FF4018000F0078000F008B50A4B1B785BB10E
S3150000500407280BD8084B03EB00131B7B43B1012184
S3150000501402F0A2F9002008BD0448FCE70448FAE7B8
S315000050240448F8E74C2D0020CC2B0020028000F029
S31500005034018000F0078000F008B50A4B1B7853B1D5
S3150000504407280AD8084B03EB00131B7B3BB102F07D
S315000050540DFA002008BD0548FCE70548FAE70548AF
S31500005064F8E700BF4C2D0020CC2B0020028000F076
S31500005074018000F0078000F00D4B1B7893B10728E0
S3150000508412D889B10B4B03EB00131B7B73B10A4B8C
S31500005094DA6A012303FA00F010401ABF00200B70ED
S315000050A408707047054870470548704705487047BB
S315000050B44C2D0020CC2B002000000440028000F080
S315000050C4018000F0078000F00B4B10B51B780C46EE
S315000050D463B107280CD859B1084B03EB00131B7BAB
S315000050E443B102F0D5F92060002010BD0448FCE766
S315000050F40448FAE70448F8E74C2D0020CC2B00209E
S31500005104028000F0018000F0078000F02DE9F843EA
S31500005114174B1F6D5B6D1F4000D5FEE7012600256A
S31500005124144CDFF85480DFF85490374217D02368C4
S31500005134C8F800609BB1A16862680131A160284685
S315000051449847637B012B0AD148B909EB4513197BB0
S315000051541A7F60F3410160F3410219731A7701352E
S31500005164082D4FEA460604F11004DED1BDE8F883A3
S3150000517400000440CC2B0020502004404C2C00207E
S3150000518470B504460125084E04B970BD94FAA4F01E
S31500005194B0FA80F005FA00F324EA030456F8203046
S315000051A4002BF1D09847EFE7502D00204FF0007206
S315000051B4044BC3F880211A604FF08062C3F8802143
S315000051C41A60704700E100E038B504460D4601F068
S315000051D488FF034B43F82450BDE8384001F087BFED
S315000051E4502D0020084BD3F82404D3F82024104073
S315000051F442F2204220F42A5020F02A004004400CB7
S315000052049850FFF7BDBF00BF00C00340084BD3F85A
S315000052142404D3F82024104042F2204220F4AA4069
S3150000522420F055000004000C9850FFF7A9BF00BFFA
S3150000523400C00340104A30B5136841611546ABB946
S315000052441060836011E0091B9C6841611A467CB1B9
S3150000525423465C698C42F6D9002CF4D052B1906096
S31500005264836013B15A69511A596130BD0022F0E7BF
S315000052742346F4E72860F3E7A42D002010B500F0D8
S31500005284AFFA094B094A196831B11368C41A4B6954
S31500005294A34203D31B1B4B61106003E0C01A002317
S315000052A410604B6110BD00BFA42D0020942D00207A
S315000052B4074B10B51B6802205C69064B1B681C442F
S315000052C400F0C2FA2046BDE8104000F091BA00BFD3
S315000052D4A42D0020942D002070B59DF81450164678
S315000052E405710025049A8560BDF818500446C580EA
S315000052F40260C0E903360D4629B961610BB1114656
S31500005304984796B1354601F0ECFE0646FFF7B6FF20
S3150000531429462046FFF78EFF054B1B68A34201D1A1
S31500005324FFF7C6FF304601F0E2FE002070BD00BF65
S31500005334A42D002000210C4A13687BB183420AD1B4
S31500005344836879B18B6083681BB15A6941690A44E1
S315000053545A610020704719469B68EEE70028EFD093
S31500005364022070471360EEE7A42D002070B501F00B
S31500005374B8FE114D06462C78CCB9104B1C60104B68
S315000053841C60104B1C8000F0F1F9012000F05CFA5F
S3150000539400F0A8FA0C4B0246186040F2E7312346A7
S315000053A40A482DF057FE0A4B186001232B7030462D
S315000053B401F09DFE002070BD902D0020A42D00203C
S315000053C4942D00209C2D0020A02D002018FCFFFF0A
S315000053D4982D00202DE9F0410546F8B101F081FE33
S315000053E40F4F0646FFF74AFF2846D7F80080FFF717
S315000053F4A1FF044628B1304601F079FE2046BDE8F7
S31500005404F081A8453B6803D123B1FFF751FFF2E7CA
S31500005414002BF0D1022000F023FAECE72224EDE77A
S31500005424A42D0020F0B50D4685B016461F46044649
S3150000543480B1FFF7CFFFBDF82C30002202939DF810
S3150000544428302946CDE9007320463346FFF744FF4A
S3150000545405B0F0BD2220FBE738B50C46054698B1E9
S3150000546491B100230B7001F03CFE0121074B1B6830
S315000054740BB122781AB101F03AFE002038BD9D42E4
S315000054840CBF21709B68F3E72220F7E7A42D0020C8
S31500005494F0B51F46002387B00D4616468DF8173023
S315000054A40446A0B10DF11701FFF7D6FF9DF81720AA
S315000054B47AB9BDF83430294602939DF83030204637
S315000054C4CDE900733346FFF707FF07B0F0BD22208E
S315000054D4FBE70320F9E70000F8B50C460646C8B119
S315000054E4C1B101F0FEFD0546FFF7C8FE73692360EE
S315000054F4134B1B68B3420FD023B9284601F0F7FDBE
S3150000550403201CE0596922689B680A442260F1E77B
S3150000551400230FE0222012E0276800F061F9094E0B
S315000055243368C01A8742F3D900F05AF93368C01AAF
S3150000553423681B1A2846236001F0D9FD0020F8BD14
S31500005544A42D0020942D002070B501F0CAFD064656
S3150000555400F046F9094B05461C880120A4B200F068
S3150000556497F918B100F03CF905460134304601F0CC
S31500005574BEFD0022214642EA050070BD9C2D002096
S315000055840A4B10B51B680C4683420CD3084B4FF4E8
S315000055947A7219680023A0FB01012DF05BFD01302E
S315000055A42060002010BD2120FCE700BF982D0020BC
S315000055B4A02D0020104B10B51A684FF47A73A0FB87
S315000055C40301A2B1531E134211D1B2FA82F2C2F1FF
S315000055D41F02C2F12004A2F1200301FA04F420FA06
S315000055E402F2224321FA03F342EA030010BD002328
S315000055F42DF030FDFAE700BFA02D0020F8B51646C1
S315000056041BA3D3E900238B4208BF82422AD3174B3C
S315000056141A684FF47A73A0FB034503FB0155C2B124
S31500005624531E13EA020014D1B2FA82F2C2F11F0227
S31500005634C2F12007A2F1200124FA02F305FA07F7C2
S315000056443B4325FA01F10B4325FA02F2C6E900327F
S31500005654F8BD0023204629462DF0FCFCC6E90001CE
S315000056640020F5E72120F3E7AFF30080A02D00200A
S31500005674EFA7C64B37894100C2072DE9F84F044608
S315000056840BD5374A138801339BB21380FFF7F6FD17
S31500005694344B1B680BB1FFF70BFEA3075DD500F077
S315000056A49FF8314E074635684FF0000A451B01F056
S315000056B418FD8046DFF8AC90D9F80040002C48D09D
S315000056C46369AB4209D95D1B65613760FFF7F0FD7D
S315000056D44046BDE8F84F01F00ABD23462A46376026
S315000056E45969914209D8187994F804C0521A844524
S315000056F488BF1C469B68002BF2D1404601F0F7FC9C
S31500005704D4F81480C4F814A001F0EBFC83462046B8
S31500005714FFF710FE584601F0EAFC23694BB101F08D
S31500005724E0FC834621692046FFF784FD584601F0D4
S31500005734DEFCE36813B121682046984700F050F870
S315000057444744ED1B0446054401F0CBFC274680463E
S31500005754B2E7022000F084F8BAE7BDE8F88F00BF8C
S315000057649C2D0020A42D0020942D00201FB500247C
S31500005774184B18689A88029053F8060FADF80C2057
S315000057841B79009002A88DF804308DF808408DF836
S315000057940C4001F007FF694601208DF8004001F036
S315000057A4C5FE4FF090431F219A6922F01F029A61A9
S315000057B4094A11609A6A12F00802FBD11A620120A2
S315000057C401F0CEFE4FF48062044BC3F880211A60C8
S315000057D404B010BDA43403001420004800E100E026
S315000057E44FF090439A6A1207FCD4186A7047000077
S315000057F44FF09042936A1907FCD4136A116C5269EC
S31500005804120704D4CA1A022A01D899420ED1C21A1E
S31500005814012A98BF981CB0F1FF3F28BF01304FF012
S31500005824904318649A6942F008029A61054A13780B
S315000058343BB14FF09041CB6B43F00203CB630023A3
S31500005844137070471C1E002082074FF0904200F030
S315000058540103916948BF43F008030B439361704702
S31500005864830700F001020AD50121084B42F0080221
S3150000587419704FF09041CB6B23F00303CB634FF0C9
S3150000588490418B6923EA02038B6170471C1E00203A
S315000058944FF0904301285B6904D0022805D1C3F375
S315000058A4C000704703F001007047002070470000F5
S315000058B410B501F016FC4FF0904304465B691A07D5
S315000058C4074A03F0010003F00D0348BF40F002004D
S315000058D41360FFF7D1FE2046BDE8104001F007BC77
S315000058E4142000481B2001F00DB9000000221146C7
S315000058F42D48F0B503682D4D54592CB11E68AC18CB
S31500005904002E3DD1234601210832282AF4D101B1C3
S315000059140360002214462649264E0B6895592DB17C
S315000059241F68B518002F32D12B4601240832282AC5
S31500005934F4D104B10B6000680368002B2FD04FF03C
S315000059444022936F007923F0FF7323F4803343EAF4
S3150000595400439367184B4FF0004209681A600B68BE
S31500005964FBB14FF04022936F097923F4FF7323F0C0
S3150000597401030B439367104B4FF080421A60F0BD4E
S315000059841E792779B74284BF23460121BCE71F79D4
S3150000599495F804C0BC453CBF2B460124C6E7074B1B
S315000059A4D9E7064BE8E700BFAC2D0020BC2D00204C
S315000059B4B02D0020E42D00206850004068600040AF
S315000059C410B5012228240F4B00211A700E482246D6
S315000059D42DF01CFD224600210C482DF017FD0C4B22
S315000059E40C4A13600C4A13604FF040430B4A136091
S315000059F4536020220A4BC3F880211A60FFF776FF12
S31500005A04002010BDA82D0020BC2D0020E42D002070
S31500005A14B42D0020AC2D0020B02D00206460004081
S31500005A2400E100E04FF04022D2F88800D2F8883036
S31500005A34C0F38800C3F388039842F5D16FF48873E2
S31500005A44184440B2704700004FF04022936E526EE5
S31500005A5410B5134013F0804211D0114B1B681C681B
S31500005A642CB1002119605960FFF7DCFFA0474FF005
S31500005A7480420C4B1A60BDE81040FFF737BF002B7D
S31500005A84F9DA094B1B681C682CB11A605A60FFF7D7
S31500005A94C9FF0121A047034B4FF00042EAE700BFCC
S31500005AA4B02D002064600040AC2D0020FFF7CCBF71
S31500005AB4012203685A619A69D207FCD541F2AC52B5
S31500005AC4042103795B0103F1804303F57033995094
S31500005AD47047000038B141B1013AB2F5006F04488D
S31500005AE438BF00207047034870470148704700BF1D
S31500005AF4037000F0027000F038B504460D4601F05C
S31500005B04F0FAA28892B222B92A6001F0F0FA0648A5
S31500005B1438BD1422638802FB034308332B6001F06B
S31500005B24E6FA0020F4E700BF0B7000F038B504462F
S31500005B340D4601F0D6FAA3889BB223B92B6001F077
S31500005B44D6FA0C4838BD14226388E18802FB034365
S31500005B5408332B6063885A1C92FBF1F301FB132371
S31500005B649BB26380A388013B9BB2A38001F0BFFA7A
S31500005B740020E7E70B7000F090F83130022B0BD1D0
S31500005B843022437F90F821005A43044B9B5823FA52
S31500005B9400F000F0010070470020704714C0034075
S31500005BA4002313B51C4A52F8234094F8211081426D
S31500005BB40ED00133042BF6D102B010BD0028FBD160
S31500005BC49DF80730002BF7D0A068FFF7F5F9F3E747
S31500005BD494F83130022BEFD12046FFF7CDFF637ED8
S31500005BE42076022BE8D194F82E3003F0FF02002B26
S31500005BF4E2D102A901F8012DA068FFF73DFA237E40
S31500005C041BB194F82F30002BD8D00023A06884F859
S31500005C142F30FFF7F1F9CFE70C2E0020012230B523
S31500005C2490F8324087B080F82C207CB9094D03687F
S31500005C34CDE9024504904C682433CDE900240A6872
S31500005C444169C068FFF79EF907B030BD002380F8AC
S31500005C542C30F9E70D650000012330B590F8324089
S31500005C6487B080F82D307CB9094D0268CDE902452C
S31500005C7404904C683C32CDE900340B6801698068B5
S31500005C84FFF766F907B030BD002380F82D30F9E739
S31500005C94995C0000F7B5906A01A91446FFF72CFF3A
S31500005CA4144B984220D00025019B1D619D6001F094
S31500005CB418FA019A0746D66826B1D2E9002329467E
S31500005CC42046B04701A9A06AFFF730FFA06A83887F
S31500005CD49BB263B101A9FFF70FFF01992046FFF7B5
S31500005CE4BBFF384601F003FA012003B0F0BD84F887
S31500005CF42D30F6E70B7000F0F8B5044617460D464E
S31500005D0401F0EFF9A388E28806469A4205D80023F3
S31500005D143B6001F0ECF91648F8BD1422238805F11E
S31500005D24100C02FB034308332A4603CA6245186073
S31500005D345960154603F10803F6D110681422186059
S31500005D442388E18802FB034308333B6023883046FB
S31500005D545A1C92FBF1F301FB13239BB22380A38805
S31500005D6401339BB2A38001F0C2F90020D4E700BF3F
S31500005D740A7000F02DE9F3410D460446002800F0B0
S31500005D84868001F0AEF9012D064637D1A36A9B88B9
S31500005D949BB2002B39D0A068FFF74EF90023A06A06
S31500005DA484F82D3083889BB2002B34D12268936902
S31500005DB49B04FCD5023D012D1BD8E068FFF73CF996
S31500005DC40023606A84F82C3083889BB2002B41D16F
S31500005DD494F83130032B0CD042F2AC5204212379CF
S31500005DE45B0103F1804303F5703399500222236863
S31500005DF45A61304601F07BF9002009E0022D48D1B2
S31500005E04636A9B889BB2002BD4D101F070F92648B3
S31500005E1402B0BDE8F08101A9FFF76EFE0199A06802
S31500005E240831FFF751F9214F019B1F61A06A83884E
S31500005E349BB2002BBAD001A9FFF778FE019BD3F8D9
S31500005E440C80B8F1000FF1D09B6800223946204639
S31500005E54C047EBE76946FFF74FFE0099E068083153
S31500005E64FFF732F9114F009B1F61606A83889BB26A
S31500005E74002BADD06946FFF759FE009BDD68002D67
S31500005E84F3D09B68002239462046A847EDE7084828
S31500005E94BEE7032D8ED1A36A9B889BB2002B7FF4A9
S31500005EA47AAF636A73E700BF087000F0097000F008
S31500005EB4027000F0036898697047436A9888C0B214
S31500005EC470472DE9F341984600230546406A0E467D
S31500005ED484881746A4B2CDE900333CB16946FFF77E
S31500005EE40BFE01A90446E868FFF7EEF8009969B1CC
S31500005EF464B94868019BC01A3860C8F800300B685A
S31500005F0433602B68986902B0BDE8F0810021C8F8B7
S31500005F14001039603160F4E7836A9888C0B270472C
S31500005F242DE9F341984600230546806A0E46848887
S31500005F341746A4B2CDE900333CB16946FFF7DCFD50
S31500005F4401A90446A868FFF7BFF8009969B164B9C6
S31500005F544868019BC01A3860C8F800300B68336083
S31500005F642B68986902B0BDE8F0810021C8F80010DA
S31500005F7439603160F4E7007E70472DE9F04104464C
S31500005F840F469046FFF7A6FD0546002839D1152091
S31500005F9401F0CCF80646A26A93889BB213B194F832
S31500005FA42E308BB323689E6916F002060ED10422A6
S31500005FB45A619A699207FCD541F2AC5210212379B1
S31500005FC45B0103F1804303F570339950012384F890
S31500005FD4303094F8323033B9B8444745206818D184
S31500005FE483699B06FCD566B942F2AC52102123792B
S31500005FF45B0103F1804303F570339950082223684B
S315000060045A612846BDE8F081002EC5D0FFF77EF818
S31500006014C1E717F8011B01F049FDDEE710B5044698
S3150000602480B190F82E302BB9FFF7A6FD10B9A06801
S31500006034FEF7C2FF002094F82E300133DBB284F859
S315000060442E3010BD0048FCE7027000F010B504467F
S31500006054A0B190F82E309BB190F82E30012B05D1CB
S31500006064FFF78AFD10B9A068FEF7C6FF002094F872
S315000060742E30013BDBB284F82E3010BD0148FCE71C
S315000060840148FAE7027000F0057000F037B590F8A1
S3150000609431500446022D1ED1012190F82220457E5E
S315000060A4837F01FA02F23020154925B900FB031358
S315000060B442F2100105E0012D07D100FB031341F262
S315000060C410015A50002003B030BD247E00FB031398
S315000060D4002CF4D1ECE7012DF4D1037E73B911231E
S315000060E48DF80730FFF79AFF2A460DF1070120467F
S315000060F4FFF743FF2046FFF7A9FFE3E71323EFE784
S3150000610400C00340F0B504468BB09E4F03AE0D4667
S315000061140FCF0FC697E8070086E807001CB99A4C0C
S3150000612420460BB0F0BD0DB9984CF9E73822002192
S3150000613420462DF06BF99649964A0B78002B40F0D1
S31500006144D3800120C2E90033C2E90233087042F861
S3150000615423402B7D286884F831300023206084F89E
S3150000616432302B7B23718C4B984240F0CA8020231B
S3150000617484F82330894B23614FF48023002663611E
S31500006184D5E90723626216805680968084F82C60CF
S31500006194A3621E805E809E806B6803A90593EB89CB
S315000061A484F82D60ADF81C302B8A84F82F60ADF886
S315000061B41A30AB7C8DF80C608DF81830EB7C8DF8BA
S315000061C41E3005238DF8193001F0F2FB14212A7BC9
S315000061D4734B287A03EB4217C7F8AC15A97A2E320B
S315000061E440EA014C03EB4213C3F804C06A7AEB7A23
S315000061F442EA034CC7F8BCC5E17784F820306B7DCE
S31500006204E07622776377AB7D042284F82130EB7D38
S31500006214A3772B7E84F82230012301F047F801236B
S31500006224022294F82010207F01F040F894F83130CF
S31500006234022B7DD13346012294F82110607F01F0B0
S3150000624435F83346042294F82210A07F01F02EF884
S31500006254012394F82120607F1146CDE9003300F034
S31500006264DFFF00F03EFF2E7D0746032E71D141F27B
S31500006274AC5202212B7B04205B0103F1804303F51E
S315000062847033995041F25C0229688850297EEA7D70
S3150000629442EA014241F2B8515A50A97D6A7D42EA66
S315000062A4014241F2B4515A504FF0FF3242F24803D0
S315000062B42868C2502B7D032B0CBF0521042101F055
S315000062C431FB4FF440622B685A61FEF70BFE002146
S315000062D404F10800FEF794FD014600284AD0314C2B
S315000062E4384600F004FF1BE7002352F82310002968
S315000062F43FF42DAF8C423FF42AAF0133042BF4D183
S315000063040DE7294B984207D1212384F82330274BE4
S3150000631423614FF4A02331E7254B98427FF404AF61
S31500006324222384F82330234B23614FF4C02325E72B
S31500006334032B96D1334694F82110607F012200F096
S31500006344B5FF3346042294F82210A07F00F0AEFF76
S3150000635487E7022EA8D194F821001749FEF734FFE7
S31500006364FEF724FF00236676A37623762046FFF7FE
S315000063748DFE99E704F10C00FEF742FD0446002861
S31500006384AED0ACE7B0340300027000F0037000F046
S315000063941C2E00200C2E0020008005400200040064
S315000063A400C003400E7000F000C005400200050066
S315000063B40000064002000600A55B000090F831309C
S315000063C4032B05D00229417618BF0176FFF75EBE7E
S315000063D400487047057000F013B50446002862D0E3
S315000063E40321FFF7C7FC00212046FFF7E7FF002340
S315000063F4E17F1A46E07E00F059FF002394F820104E
S315000064041A46207F00F052FF94F83130022B39D11E
S31500006414002394F821101A46607F00F047FF0023FA
S3150000642494F822101A46A07F00F040FF00210123B1
S3150000643494F82120607FCDE90031114600F0F0FE8A
S3150000644494F8323013B90A2223685A6194F8313029
S31500006454032B04D0002194F82100FEF7B5FEA068B2
S31500006464FEF71AFDE068FEF717FDFEF7F5FC0020BF
S31500006474636A188058809880A36A18805880988028
S3150000648402B010BD032BDBD1002394F821101A4669
S31500006494607F00F00BFF002394F822101A46A07FB9
S315000064A400F004FFCCE70148EAE700BF027000F001
S315000064B4F0B587B004461646FFF70CFB0546E8B967
S315000064C40493104BCDE901166A4601A9606A039646
S315000064D40593FFF711FC054680B994F82C306BB987
S315000064E42046FFF7E5FA0099FFF798FB94F8313058
S315000064F4032B03D025762046FFF7C8FD284607B0B0
S31500006504F0BD00BF017000F073B5506A01A91446CE
S31500006514FFF7F2FA2F4B984230D094F83200019BE1
S31500006524002839D12268916C11F4007129D02A49C6
S315000065349860196142F248034FF40071D15000F09B
S31500006544D0FD01990646CD6835B14A688B68204668
S31500006554D31A0A680969A84701A9606AFFF7E6FA27
S31500006564606A8588ADB2DDB101A9FFF7C5FA019964
S315000065742046FFF753FB304600F0B9FD012002B078
S3150000658470BD906CC00507D51448996018614FF426
S31500006594807142F24803D1E700221A619A60CEE77D
S315000065A4012320462376FFF771FD94F8313084F8F1
S315000065B42C50032BDFD042F2AC52042123795B0129
S315000065C403F1804303F570339950022223685A611C
S315000065D4D1E700BF0B7000F00D7000F00C7000F0F6
S315000065E490F8312010B5012A034610D102290ED0A5
S315000065F4827E8A4201D1002010BD997611B9FFF737
S3150000660425FDF8E70129F6D1FFF708FDF3E7014870
S31500006614F2E700BF057000F0F0B587B004461646F1
S31500006624FFF758FA054600BB0493114BCDE9011652
S315000066346A4601A9A06A03960593FFF75DFB054622
S3150000664498B994F82D3083B900F04BFDA36A064639
S315000066549B889BB233B100992046FFF7FDFA0123CC
S3150000666484F83030304600F042FD284607B0F0BDCD
S31500006674017000F070B588B00E22002104A82CF039
S31500006684C5FE01230D22002168468DF810302CF03A
S31500006694BDFE0223244C6A46002120468DF80630AE
S315000066A401F0A4F8236B4FF6FF73204EE361002339
S315000066B43546ADF8123004A9204601F04AF8062002
S315000066C400F020FABDF812300133B0FBF3F09BB2B0
S315000066D4B3F5806F3060ADF8123002D2144B984295
S315000066E4E9D80E2000F00EFA1249134CB1FBF0F172
S315000066F428680025E1FB0045104A00232046294668
S315000067042CF0A8FC0E4B084A186000200D4B18709C
S31500006714936923F01003936140220B4BC3F8802145
S315000067241A6008B070BD00BF00800440202E00200F
S3150000673480841E0000B0710B20A1070040420F00A8
S31500006744242E0020282E002000E100E0F7B50025C5
S315000067541D4B1E4C19681E4AE0FB014500232046CA
S3150000676429462CF077FC4FF6E85400254FF6E75EF1
S315000067744FF0FF37DFF860C0164E8D4208BF8442E3
S3150000678411D380B260B1144A516A89B2536A9BB27A
S31500006794ADF80630BDF806305B1A9BB29842F5D8C0
S315000067A4002003B0F0BDDCF8242092B2DCF82430DB
S315000067B49BB2ADF80430BDF804309B1A9BB2734506
S315000067C4F4D980197941D8E7202E002020A10700AA
S315000067D440420F001802FFFF00800440054B5A692F
S315000067E4D20606D542F21402102199500122024B18
S315000067F41A70704700800440282E002038B5124BCA
S315000068040546D3F820310C4603F00703013B032B5E
S3150000681417D8DFE803F0020A0E1201F001FA042386
S3150000682405B1286004B1237038BD01F0E3F90323F0
S31500006834F6E701F001FA0523F2E701F0F9F902237C
S31500006844EEE700231846EBE70080004037B50C4618
S315000068540021114B0191D3F88031054603F003035F
S31500006864022B0ED0032B11D0012B03D101A8FFF765
S31500006874C5FF0D210DB1019B2B6004B1217003B03E
S3150000688430BD01F0D9F905210190F3E701F0D0F903
S3150000689402210190EEE700BF0080004038B5104B9E
S315000068A40546D3F840310C4603F00303022B0BD004
S315000068B4032B0DD0012B0FD101F002FA082305B1E9
S315000068C4286004B1237038BD01F000FA0723F6E707
S315000068D401F0F9F90923F2E700231846EFE700BFB0
S315000068E40080004038B5104B0546D3F860310C469D
S315000068F403F00303022B0BD0032B0DD0012B0FD176
S3150000690401F0DEF9082305B1286004B1237038BD0F
S3150000691401F0DCF90723F6E701F0D5F90923F2E7DC
S3150000692400231846EFE700BF0080004038B5134B3C
S315000069340546D3F800320C4603F00703013B032B4C
S3150000694418D8DFE803F0020A0E1201F0B9F9082399
S3150000695405B1286004B1237038BD01F0B7F90723E7
S31500006964F6E701F0B0F90923F2E701F02DF90C235B
S31500006974800AEDE700231846EAE700BF00800040DE
S3150000698438B5134B0546D3F808320C4603F0070313
S31500006994013B032B18D8DFE803F0020A0E1201F0BC
S315000069A48FF9082305B1286004B1237038BD01F0BE
S315000069B48DF90723F6E701F086F90923F2E701F0DA
S315000069C403F90C23800AEDE700231846EAE700BF23
S315000069D40080004038B5104B0546D3F840320C46CB
S315000069E403F00303022B0BD0032B0DD0012B0FD185
S315000069F401F066F9082305B1286004B1237038BD97
S31500006A0401F064F90723F6E701F05DF90923F2E7DB
S31500006A1400231846EFE700BF0080004038B5104B4E
S31500006A240546D3F800310C4603F00303022B0BD0C2
S31500006A34032B0DD0012B0FD101F0DCF8032305B194
S31500006A44286004B1237038BD01F040F90723F6E746
S31500006A5401F0ECF80623F2E701230020EFE700BF7C
S31500006A640080004041F671320F4B10B5D969DA63E4
S31500006A749A680E4C22F44012A04288BF42F4801257
S31500006A849A600B4A0B4CD2F81832A04223F0020348
S31500006A9488BF43F0020301F48031C2F8183211B101
S31500006AA40022014BDA6310BD00000340C0175302F5
S31500006AB400C0074080F0FA0208B501F097F8BDE877
S31500006AC40840FFF7CFBF000002280CD007D80128E2
S31500006AD414D10B4B186FC0F30130013070470328F3
S31500006AE407D00E28F4E7064BD3F89000C0F30460F1
S31500006AF4F3E7034B186FC0F38020EEE70020ECE7C2
S31500006B0400800040002307B50193242817D8DFE846
S31500006B1400F0131A1D262B353A3F44494E53586646
S31500006B241A3F1616441A262B26351A3F26663A3A73
S31500006B343A3A262626494E0001F02CF8019001988F
S31500006B4403B05DF804FB01F03FF8F7E701F022F823
S31500006B5402460220FFF7B8FFB2FBF0F0EEE701F0C1
S31500006B6433F802460320F5E701F02EF80246032027
S31500006B74FFF7AAFFB2FBF0F04008DFE7002101A807
S31500006B84FFF764FEDBE7002101A8FFF737FED6E72F
S31500006B94002101A8FFF782FED1E7002101A8FFF733
S31500006BA4A1FECCE7002101A8FFF7C0FEC7E700213C
S31500006BB401A8FFF7E5FEC2E7002101A8FFF72EFFB3
S31500006BC4BDE7094BD3F8803003F00303022BBAD098
S31500006BD4032B01D00020B1E701F02EF8AEE7002127
S31500006BE401A8FFF7F7FEAAE70080004002280AD0B2
S31500006BF402D8012804D0704703280FD00E2815D1D7
S31500006C04084600F02BB80A4A0139D2F8903023F02E
S31500006C14F85343EA0161C2F890107047044A0139F7
S31500006C24136F23F4806343EA81211167704700BF21
S31500006C340080004002210320FFF7D8BF08B50120D9
S31500006C44FFF760FFBDE80840034988428CBF022174
S31500006C5401210320FFF7CABF80F0FA0210B50446EB
S31500006C64FFF72AFFFFF7E6FF074A013C106F20F4FF
S31500006C74405040EA0430106700F0A6FFFFF7F2FE2A
S31500006C84BDE81040FFF7DABF00800040002307B5D7
S31500006C948DF80730242822D8DFE800F013212121BB
S31500006CA4212C32383E444A505669213821213E214E
S31500006CB42121212C213821693232323221212144E9
S31500006CC44A002E4B1B6F03F00703013B032B06D828
S31500006CD4DFE803F00E020A0C04238DF807309DF852
S31500006CE4070003B05DF804FB0323F6E70623F4E785
S31500006CF40223F2E70DF107010020FFF7A7FDEEE7F7
S31500006D040DF107010020FFF779FDE8E70DF1070112
S31500006D140020FFF7C3FDE2E70DF107010020FFF7AE
S31500006D24E1FDDCE70DF107010020FFF7FFFDD6E7E3
S31500006D340DF107010020FFF723FED0E70DF107014F
S31500006D440020FFF76BFECAE70C4BD3F8803003F044
S31500006D540303022B03D0032B05D00023BDE700F069
S31500006D6433FF0B23B9E700F067FF0523B5E70DF101
S31500006D7407010020FFF72EFEB1E700BF00800040A8
S31500006D8470B50C46242848D8DFE810F025004700E3
S31500006D944700470047005B006C007D008E009F00A3
S31500006DA4B000C100D200E30047007D004700470061
S31500006DB48E0047004700470047005B0047007D0000
S31500006DC44700E3006C006C006C006C004700470051
S31500006DD447009F00B0008B1E042B2FD8DFE803F07A
S31500006DE42B1E032E280000250226FFF765FEFFF75B
S31500006DF421FF604A136F23F007033343136700F040
S31500006E04E3FEFFF72FFEFFF719FF35B9032C04D174
S31500006E1442F228030121584AD15070BD41F228029A
S31500006E240121554B03269D6A9950C5F34005DCE7BD
S31500006E3400250426D9E700250126D6E700252E4697
S31500006E44D3E78C1EE4B20B2C8CBF00214B4B494A72
S31500006E5498BF195DD2F8803123F003030B43C2F8BF
S31500006E648031DAE78C1EE4B2032C8CBF0021444B3C
S31500006E74404A98BF195DD2F8203123F007030B432B
S31500006E84C2F82031C9E7CC1FE4B2022C8CBF002122
S31500006E943C4B384A98BF195DD2F8403123F00303BE
S31500006EA40B43C2F84031B8E7CC1FE4B2022C8CBFC6
S31500006EB40021354B2F4A98BF195DD2F8603123F073
S31500006EC403030B43C2F86031A7E7CC1FE4B2052CD9
S31500006ED48CBF00212D4B274A98BF195DD2F800328A
S31500006EE423F007030B43C2F8003296E7CC1FE4B243
S31500006EF4052C8CBF0021264B1E4A98BF195DD2F87B
S31500006F04083223F007030B43C2F8083285E7CC1E88
S31500006F14E4B2042C8CBF00211E4B164A98BF195D9F
S31500006F24D2F8003123F003030B43C2F8003174E7AF
S31500006F3405290CD00B290CBF022100210D4AD2F8D9
S31500006F44803023F003030B43C2F8803065E7032146
S31500006F54F4E7CC1FE4B2022C8CBF00210E4B054A89
S31500006F6498BF195DD2F8403223F003030B43C2F8ED
S31500006F74403252E70080004000C00040CC34030099
S31500006F84D8340300DC340300DC340300DF340300AC
S31500006F94DF340300E5340300DC340300F8B50446AB
S31500006FA40020FFF773FE03287BD045F60E03424A02
S31500006FB40221C2F8803041F22803D15042F228035C
S31500006FC40121D150916D11F48031FBD16378207881
S31500006FD41B0543EA0063A079374E0343E078657CDA
S31500006FE443EA0043207943EA0033607943EA801395
S31500006FF41361237AE0791B0643EA8063E07A03434C
S31500007004607A43EA0043A07A43EA00239361637BF0
S31500007014126A002B18BF0821207B22F00D0243EAD6
S31500007024020343EA800341EA0301A37B31624FEA88
S315000070344317E37B207C4FEA0311334632D1B26A0D
S3150000704422F0330242F001023A430A43B2621B4A77
S31500007054996D32EA0101FBD141F2280202219950CD
S31500007064154A936D5B00FCD41169A37821F4700171
S3150000707441EA0351116141F218034FF00041D15026
S3150000708418B942F228030221D15025B942F2280345
S315000070940121094AD150A37C1BB1074B084AC3F806
S315000070A48020F8BDB36A23F033032B433B430B43E1
S315000070B443EA4003B362EEE700C000400300014028
S315000070C4F1A7FFFFEFF3108072B6704700B962B6FE
S315000070D47047302383F311887047002383F31188A4
S315000070E47047EFF31180302383F31188704780F3E0
S315000070F411887047EFF31083DB0706D4EFF3118092
S315000071042F2894BF002001207047012070470000FB
S31500007114054A410900F01F0352F82100D840C04334
S3150000712400F00100704700BF00E100E010B504461E
S31500007134EFF31083DB0733D4FFF7EAFF00282ED1E1
S31500007144002CABBF04F16044164B04F5614404F013
S315000071540F04ACBF94F800231A5D1209EFF31183F0
S3150000716413B1B2EB131F1BD20F4C6368C3F30803AE
S31500007174ABB1103BDBB259B20029B5BF03F00F0324
S3150000718401F16043043B03F56143B6BF1B1993F851
S315000071940003187E0009824234BF0020012010BD7E
S315000071A40120FCE714ED00E000ED00E070477047B5
S315000071B4084A10B51369044643F004031361FFF744
S315000071C4F5FF30BFFFF7F3FF1CB9BDE8104000F030
S315000071D4FBBC10BD00ED00E0FFF7EABF4FF0402313
S315000071E44AF6E850DA6ED96E22F0030242F0020241
S315000071F441F003011866DA66D966DA66D966DA6694
S31500007204D966DA66D966DA6670474FF04022D36EDD
S31500007214017923F030030B43D366704770470000AF
S31500007224072A70B510D803249500184EAC40346074
S31500007234A840A6F580563060154801F003010460A5
S31500007244A940A0F58050016012491348002B14BFD1
S315000072540B460346012101FA02F21A609DF810005A
S315000072640E490F4B002808BF0B461A6042F2204312
S315000072740C499DF81400CA500B4B01F510512431EA
S31500007284002808BF0B461A6070BD00BF00E4034027
S3150000729408E4034010D4034010E4034014E403401C
S315000072A414D4034000C0034024D40340F0B54AB1CB
S315000072B4012530241D4E8D4004FB00640BB341F2BE
S315000072C41006A55130244443072904F1804404F5EB
S315000072D4703419D80F2765688E00B74025EA07056C
S315000072E402FA06F63543656052B9012202FA01F143
S315000072F430220E4C02FB0040A3B141F21003C150F0
S31500007304F0BD42F21006DCE70F2701F18045083D87
S31500007314E668AD00AF4026EA070602FA05F53543EE
S31500007324E560E1E742F21003E9E700BF00C003406D
S315000073344FF40012064BC3F88020BFF34F8FBFF300
S315000073446F8F0022FF21034B5A6599625A6070477A
S3150000735400E100E000000440054B064A00290CBF8A
S3150000736419461146012303FA00F00860704700BF6E
S31500007374401004404020044030B5047845788178B4
S31500007384C27801200F4B41EA0541240658609C60EF
S315000073949961FF2199620021996319644FF00041B4
S315000073A44FF0FF30596542F2500158504FF4001027
S315000073B405491301DBB2C1F8800181F81533086071
S315000073C430BD00BF0000044000E100E02DE9F041BB
S315000073D40C4601264FF0300EC3B29E40204D236862
S315000073E48F7A91F80B8094F80DC0097B45F820300C
S315000073F4A5F580450EFB00504FEA085343EA0743C0
S3150000740443EA4153C0F860C0C36542F2500322F018
S3150000741403020267EE50FFF764FE6B6D33436B6540
S31500007424237A13B12B6C33432B64637A13B1AB6B9E
S315000074343343AB6342F218012379A27942EA034249
S31500007444084B5A506179E27942EA014241F2180145
S315000074545A50054A16609E64BDE8F041FFF747BEE0
S3150000746400400440000004403420044010B50124C8
S31500007474C0B28440FFF735FE044B5A6D22EA04027B
S315000074845A659C62BDE81040FFF731BE0000044017
S31500007494F8B50125C3B29D400446FFF722FE30220B
S315000074A4094B02FB04341E6D5F6B646EFFF71FFE0F
S315000074B43D4206D1C4F30A1008B9354200D1013061
S315000074C4F8BD0020FCE700BF0000044041F671321D
S315000074D4034B0121DA6342F20C029950704700BF54
S315000074E40000034041F67132044B0121DA6342F293
S315000074F40C0299500022DA63704700BF0000034073
S315000075044FF40032014B1A60704700BF70500040C0
S315000075144FF04023D3F8940070474FF090435A68D5
S3150000752412B19A6A002AFAD170470000CB784A78D9
S3150000753410B55B010C7843EA82030A79234343EAD4
S3150000754402130C22424302F190421363012C02BF40
S315000075548A78024B43F8202010BD00BFD080034038
S3150000756408B54FF090435A6802B960B15B680BB135
S31500007574FFF7D3FF4FF0904130B10120074B18605D
S31500007584FFF7CBFFC86008BDFFF7C7FF0223CB6038
S31500007594FFF7C3FF0122024B1A60F4E70410004808
S315000075A4042000484FF090435B6870B50BB1FFF7B9
S315000075B4B4FF0121104B0679196083784578002BB6
S315000075C4C37814BF02240024002B14BF0422002213
S315000075D44379DB0043EA06132B43234313434FF05B
S315000075E490429360054B19600378002B14BF0B4639
S315000075F40223D36070BD00BF042000480410004875
S315000076044FF098435A6CD202FCD5586D00F47020A2
S315000076147047436813B9416070475B685A68012A2A
S31500007624FBD159607047836813B9816070475B6802
S315000076345A68012AFBD159607047C369032B9FBF5F
S3150000764400EB83020133D160C3617047C369042B25
S3150000765415D84FF09842116CC902FCD504339B002F
S3150000766413650168103B116041680C30116050F8D5
S31500007674041C034411604FF09842984200D17047AD
S3150000768450F8041B1160F8E770B58CB01446054633
S315000076941C220E4605A800212BF0B8FE0D4B0196C0
S315000076A40493012301A9029304A844F0005303930D
S315000076B4FFF7AFFF294604A8FFF7BFFF214604A83A
S315000076C4FFF7BBFF04A8FFF7C1FFFFF799FF0CB054
S315000076D470BD00BF00000943054B5B69C3F3851207
S315000076E4827003F03F021B0B42700370704700BFA9
S315000076F400C0074030B5114CA04216D004F58044B2
S31500007704A04214D004F58044A04212D004F580446B
S31500007714A0420CBF03204FF0FF30094C062553B19D
S3150000772405FB001044F8202030BD0020F5E70120B9
S31500007734F3E70220F1E71202F2E700BF00800440FB
S315000077441C810340036BDA0702D503695B06F9D48F
S31500007754704710B50446FFF7F5FF012242F23003E5
S31500007764C2500B7948881B0243EA8043487A034394
S315000077744878002814BF402000200343887A002854
S3150000778414BF802000200343C87A002814BF202099
S3150000779400200343087B002814BF10200020034365
S315000077A4487B002814BF082000200343887900285A
S315000077B414BF4FF4803000200343636041F230036A
S315000077C4E2500A780AB90223E3600023C8796362A7
S315000077D40B7A497943EA8003002914BF102100215A
S315000077E40B43A3600AB10123E36010BD70B51546CF
S315000077F40646FFF7A7FF42F230030122C250EA7998
S31500007804EC7A002A6A7A14BF4FF480100020002A0A
S3150000781414BF10220022AB7943EAC4430343134343
S3150000782406EB411423662B7A33B32B7B226E304648
S3150000783442EA4342226613F1FF3318BF0123AA78B2
S31500007844FFF758FF41F230030122F2506B782A7891
S315000078541B0643EA8263EA7843EA02332A7943EA57
S3150000786482236A7943EA0223AA7A002A14BF0422ED
S3150000787400221343636670BD236E2366E2E70000AD
S315000078840D4B984208D1A3F50033C3F88411C36D98
S3150000789443F08003C3657047084B984204D1A3F5AF
S315000078A41033C3F89411F2E7054B984204BFA3F5CD
S315000078B42033C3F8A411EAE70080054000C0054060
S315000078C40000064070B5054616461C4619B9032045
S315000078D4FFF718F90146202C08D001D8ECB170BD89
S315000078E4402C18D0602CFAD1042200E0082206FBB2
S315000078F402F35A0802EB4112B2FBF3F2084B203AA8
S3150000790403EAC202AB6823F06003AB60AB681C43B6
S31500007914AC60EA61E3E70622E9E71022E7E700BF85
S31500007924F8FF7F00012241F20403C250CB43934087
S3150000793403F00A034361416111B942F20403C250E0
S315000079447047000041F204030122C25040F6AA63C4
S3150000795441F20502436100238360C365C26042F2BB
S31500007964480210490361C361C36481500E4A8365AA
S31500007974904206D00D49884203D001F580418842E1
S315000079840BD19042036506D0084B984203D003F509
S315000079948043984201D10023436542F20403012245
S315000079A4C2507047FFFF01000080054000C005403B
S315000079B438B50D460446FFF7C5FF41F2040301221C
S315000079C4C250AB7C1BB1836843F080438360EB7C7D
S315000079D41BB1297D2046FFF753FF2A8A6B7B20467D
S315000079E41343EA891343E360D5E901122B7BFFF7BE
S315000079F469FF6B7D1BB1A36843F48033A360AB7D41
S31500007A04EA7D1B07120502F4E00203F0E043297E37
S31500007A141343A3658B1E012B1E4A1F4B21D8944288
S31500007A241BD002F58042944219D002F5804294425A
S31500007A340CBF02224FF0FF3203EB4213022041F245
S31500007A44AC52032998500CBF41F25C0342F25C032A
S31500007A540422E2502B78636138BD0022ECE7012250
S31500007A64EAE7944211D00D4A944210D002F58042BE
S31500007A7494420CBF02224FF0FF3203EB4213022062
S31500007A8442F2AC5201299850DDE70022F5E70122C3
S31500007A94F3E700BF0080054000C0034000C0054076
S31500007AA483691B06FCD5406AC0B2704783695B06CE
S31500007AB4FCD5C16370474369002B07DB39B9436AB8
S31500007AC4DB07FCD442F204030122C250704741F2A0
S31500007AD40403F9E7436810B5DA0704460AD5FFF745
S31500007AE400FB636ADB075CBF0123E360BDE810406B
S31500007AF4FFF7FDBA10BDF8B5436805460C4633B129
S31500007B046B6A002BFCD142F204030122EA5063782B
S31500007B14227A002BA37814BF4FF0100C4FF0000C00
S31500007B24002BE37814BF02270027002B237914BF08
S31500007B3404260026002B637A14BF08200020002B9D
S31500007B4414BF4FF480710021E379120742EA0362FD
S31500007B54A37942EA034343EA0C033B433343034317
S31500007B640B43AB6021782846FFF7A5FF63790BB179
S31500007B7400232B62F8BD0000044B054A9A60D3F833
S31500007B84882042F47002C3F88820704700ED00E0B4
S31500007B9400420000084B1B6F03F00703022B04D0BE
S31500007BA4032B05D0012B05D0FEE7044B186870475C
S31500007BB4034BFBE70348704700800040241E002067
S31500007BC4281E0020002D310108B5FFF7E3FF054B01
S31500007BD41B6FC3F301330133B0FBF3F0024B1860A0
S31500007BE408BD00BF00800040201E002000487047EA
S31500007BF400B4C404014B1868704700BF281E002057
S31500007C04054B1860054B1B6F03F00703032B01D1CB
S31500007C14FFF7DABF704700BF281E0020008000402F
S31500007C24014B1868704700BF241E002000207047CF
S31500007C3400487047002D3101174B9868C0F3044083
S31500007C440C2826D8DFE800F0092525252525071B5D
S31500007C541D251F212300114870479B6803F04073BC
S31500007C64B3F1807F07D0B3F1007F06D00C4A002B16
S31500007C7408BF104670470B4870470B4870470B48BF
S31500007C8470470B4870470B4870470B4870470B48C2
S31500007C9470470020704700BF0040014A405DC6009F
S31500007CA400093D0080841E0040420F000024F400B9
S31500007CB4C0EA210180BA8C010048E801005A620238
S31500007CC44FF4004070474FF47A707047014B1868C0
S31500007CD4704700BF2C1E002008B528231B689B692B
S31500007CE4DB0205D5012803D840F202200EF0A0FAE3
S31500007CF4012008BD28231B689868C0F30343C0F31A
S31500007D0403621B0243EA0233C0B218437047000001
S31500007D1470B50438C6B0FB2801F25587DFE810F0C9
S31500007D242C02530F530F530F3502530F530F530F98
S31500007D34530F530F530F530FDD03CB03530F530F3F
S31500007D44950A3B0446049403A303530F8704530F75
S31500007D54530F9F044401F1021B031C01AE03530F8E
S31500007D64530F5708530F530FFF013E02EA0C5A0DE7
S31500007D74090DF60CD70C360D870D530F530F4F050F
S31500007D840A07A601F30588053906D206660607031F
S31500007D94FC00B301E801530F1A0423065B05530FD5
S31500007DA4530F530F530F530F530F530F5301970191
S31500007DB47E01530F530F530FD407B406530F530FBB
S31500007DC4530F530F530F530F530F530FC107AA04E7
S31500007DD439075307BC04D10439051F05530F080599
S31500007DE49007530F4909AB0AC50AC409DA098F0972
S31500007DF40D0B440A530F200B910C0A0AEA0A610B75
S31500007E04550BAA099409440B530FBC0189038E022E
S31500007E14530F530F7207F204530F530FC105F90D95
S31500007E24960D180E300E0C0E240EBA0DD00DA20DA2
S31500007E34E30DAE0D530F530F530F530F530F530F41
S31500007E44530F530F9E06530F530F63045104530FDE
S31500007E540001530F530F3C0E530F760E380FB20E1C
S31500007E64E80E0A0F9C0E530F720B940B530F530F0D
S31500007E74530F530FA7076809CD0E83097508CC085D
S31500007E8430090009530F530F530F29045C08530F8D
S31500007E946808C3081D08EF080E0CC402DB02E602DC
S31500007EA4530F530FC00B530FF70B1E0C530F530FE7
S31500007EB4530F530F6B0A12097504B902530F30019D
S31500007EC4F408350829088F08B2080508110841087E
S31500007ED44C087A0C960CB20CA60C6A0C650C530F63
S31500007EE4530F530F530F530FFE0E530F590E530FC9
S31500007EF41B0F2C0F890E6207530F530F530FE30406
S31500007F048507C90CBE08C003540377033F03260341
S31500007F14530F5E02F20753020124204646B070BD99
S31500007F2412AB01930AAB00930CAA24ABBB49012004
S31500007F3414F02EF8BDF848309DF828202499BDF891
S31500007F44300021F0D3FE46AA02F8EC0DB449002015
S31500007F5414F01EF80124E0E724AB0CAAB149012071
S31500007F6414F016F824999DF8300004F047FC46AA4C
S31500007F7402F8D00DAA49002014F00AF80124CCE72F
S31500007F840CAB24AAA849012014F002F89DF830107D
S31500007F94249818F045FD46AA02F8D00DA049002001
S31500007FA413F0F6FF0124B8E724A813F0C7FD24A8AC
S31500007FB41BF0C6F846AA02F8D00D9949002013F022
S31500007FC4E7FF0124A9E70CAA9549012013F0E0FF75
S31500007FD424A99DF8300004F00FFC46AA02F8D00D3F
S31500007FE48F49002013F0D4FF24A9082013F090FD34
S31500007FF49DF8980013F054FDBDF89A0013F060FD47
S315000080049DF89C0013F04CFD9DF89D0013F048FD6F
S315000080149DF89E0013F044FD01247EE786230BAAF7
S315000080247F4901208DF8483013F0B2FF24A99DF84A
S315000080342C0004F0EAFB46AA12AB02F8E80D7B49D1
S315000080440093002024AB13F0A3FF012465E724A8C2
S3150000805422F0C2FA46AA02F8D00D7149002013F0A4
S3150000806497FF24A813F05DFF012456E724A822F005
S31500008074AFFA46AA02F8D00D24AB6D49002013F0DE
S3150000808487FF012449E7012446AA02F8884D64497A
S31500008094002013F07DFF40E70CAA6149012013F08C
S315000080A477FF24A99DF8300023F05CFD46AA02F868
S315000080B4D00D5B49002013F06BFFBDF8900013F060
S315000080C4FFFC9DF8920013F0EBFC9DF8930013F06F
S315000080D4E7FC9DF8940013F0E3FC9DF8950013F07B
S315000080E4DFFC0DF19601082013F012FD012414E7BC
S315000080F4082246AB03F8EC2D4E4924AA012013F0BE
S3150000810447FF12A924A824F0D3F846AA02F8E80DDA
S3150000811412AB4449002013F03BFF0124FDE624A9D9
S3150000812412A804F02FFB46AA02F8E80D12AB404948
S31500008134002013F02DFF24A9082013F0E9FCBDF854
S31500008144980013F0BDFC9DF89A0013F0A9FC9DF865
S315000081549B0013F0A5FC9DF89C0013F0A1FCBDF850
S315000081649E0013F0ADFC9DF8A00013F099FC29982D
S3150000817413F0BAFC0124D0E6012446AA02F8884D7D
S315000081842749002013F004FFC7E6002046AA02F898
S31500008194880D234913F0FCFE0124BEE6082312AC25
S315000081A4214624A88DF8303004F014FB46AA0CAB03
S315000081B402F8EC0D204901940093002024AB13F03F
S315000081C4E7FE0124A9E618F033FD46AA02F8880D55
S315000081D41349002013F0DCFE01249EE60CAA104984
S315000081E4012013F0D5FE24A99DF8300018F0D0FC28
S315000081F446AA02F8D00D0A49002013F0C9FE9DF8DC
S31500008204900013F04DFC9DF8910013F049FC9DF885
S31500008214920013F045FC01247FE600BF2C350300D1
S315000082247F350300313503004E3503009D5B0300A3
S315000082346E350300BB600300343503000CAABE4947
S31500008244012013F0A5FE24A99DF8300022F03AFC83
S3150000825446AA02F8D00DB849002013F099FEBDF8DD
S31500008264900013F02DFCBDF8920013F029FC9DF844
S31500008274940013F015FC9DF8950013F011FC9DF87D
S31500008284960013F00DFC9DF8970013F009FC0124E9
S3150000829443E604F01FFA46AA02F8880DA649002010
S315000082A413F076FE012438E612AC0BAAA24901208B
S315000082B413F06EFE224624A99DF82C0004F00CFA55
S315000082C446AA02F8E80D24AB00949C49002013F05A
S315000082D45FFE012421E604F003FA46AA02F8880D9B
S315000082E49549002013F054FE012416E604F0F6F92D
S315000082F446AA02F8880D9049002013F049FE01248D
S315000083040BE60CAA8C49012013F042FE24A813F0B4
S3150000831415FC24A99DF830001AF0BEFF46AA02F8FF
S31500008324D00D8549002013F033FE0124F5E5012420
S315000083340BAA8149012013F02BFE0CAA12AB80492B
S31500008344012013F025FE46AA02F8884D7A4900203A
S3150000835413F01EFEE1E51CF0E7FA46AA02F8880DC2
S315000083647549002013F014FE0124D6E512AB0093E0
S315000083740BAA0CAB7349012013F00AFE9DF84820A2
S315000083849DF830109DF82C0025F0CEFE46AA02F882
S31500008394880D6949002013F0FBFD0124BDE512ABED
S315000083A40CAA6949012013F0F3FD9DF948109DF8C4
S315000083B4300025F0B7FE46AA02F8880D5E49002073
S315000083C413F0E6FD0124A8E512AB02930CAB01936E
S315000083D40BAB00930DF126020AAB5C49012013F0A6
S315000083E4D7FD9DF848409DF930309DF82C209DF826
S315000083F4281000949DF8260025F090FE46AA02F85F
S31500008404880D4D49002013F0C3FD012485E512AA09
S315000084144949012013F0BCFD9DF8480025F080FE73
S3150000842446AA02F8880D4449002013F0B1FD012440
S3150000843473E523F08BFB46AA02F8880D3E4900201B
S3150000844413F0A6FD012468E524A813F0F7FB24A87D
S315000084541AF08AFF46AA02F8D00D3749002013F015
S3150000846497FD012459E518F05BFB46AA02F8880D2E
S315000084743149002013F08CFD01244EE512AA2E4941
S31500008484012013F085FD9DF848001AF063FA46AA08
S3150000849402F8880D2849002013F07AFD01243CE5F2
S315000084A40DF063FC46AA02F8880D2349002013F058
S315000084B46FFD012431E512AA1F49012013F068FD5E
S315000084C49DF8480004F0A3FD46AA02F8880D1A494F
S315000084D4002013F05DFD01241FE50AAB04930DF1A2
S315000084E42603039309AB029324AB019312AB0093C7
S315000084F40DF122020CAB1649012013F049FD9DF83B
S315000085042840BDF8903002949DF82640BDF84820D6
S3150000851401949DF82440BDF8301000949DF8220083
S3150000852404F077FD46AA02F8EC0D0349002013F087
S315000085342FFD0124F1E400BF7F3503003835030025
S3150000854442350300493503003C3503003F3503003B
S315000085544535030024A813F0F1FC24A822F03AF8C8
S3150000856446AA02F8D00DA949002013F011FD0124F2
S31500008574D3E412AAA549012013F00AFD9DF8480088
S315000085841AF0FAFB46AA02F8880DA049002013F057
S31500008594FFFC0124C1E424AA9D49012013F0F8FC40
S315000085A49C4BBDF8902001241A80B6E424AA98496D
S315000085B4012013F0EDFC984BBDF8902001241A809D
S315000085C4ABE412AA9149012013F0E2FC9DF848009D
S315000085D41AF0A6FB46AA02F8880D8C49002013F06F
S315000085E4D7FC012499E412AA8C49012013F0D0FC8B
S315000085F49DF9480018F008FB46AA02F8880D83493D
S31500008604002013F0C5FC012487E412AA7F49012047
S3150000861413F0BEFC9DF8480004F05AF846AA02F886
S31500008624880D7A49002013F0B3FC012475E40CABE1
S3150000863400930BAA24AB7A49012013F0A9FC9DF8F8
S31500008644302024999DF82C0017F0AEFE46AA02F8B5
S31500008654D00D6E49002013F09BFC01245DE417F055
S3150000866475FF46AA02F8880D6849002013F090FCAD
S31500008674012452E412AA6549012013F089FC9DF8ED
S31500008684480020F0EAFE46AA02F8880D5F49002059
S3150000869413F07EFC012440E408230CAA5B49012064
S315000086A48DF8483013F074FC24A99DF8300021F0AD
S315000086B48FFC12AB24AA5B49002013F069FC012449
S315000086C42BE412AA5149012013F062FC9DF84800DC
S315000086D421F096FC46AA22F8880D4D49002013F095
S315000086E457FC012419E424A81BF0A2FA46AA02F8AE
S315000086F4D00D4649002013F04BFC24A813F065FA6C
S3150000870401240AE4082246AB03F8E82D454924AAC5
S31500008714012013F03DFC24A821F05EFD46AA02F8D0
S31500008724D00D3A49002013F033FC0124FFF7F5BBC2
S315000087340CAA3649012013F02BFC24A99DF830001D
S3150000874403F0F4FF46AA02F8D00D3049002013F0D6
S315000087541FFC24A813F026FA0124FFF7DEBB082326
S3150000876412AA2B4901208DF8303013F011FC24A9EC
S31500008774BDF8480018F0DAFB46AA0CAB02F8EC0D7B
S3150000878429490093002024AB13F002FC0124FFF7CF
S31500008794C4BB082246AB03F8E82D224924AA0120CB
S315000087A413F0F6FB24A818F0A5FB46AA22F8D00D70
S315000087B41749002013F0ECFB0124FFF7AEBB1FF0B2
S315000087C4E1FB46AA02F8880D1049002013F0E0FBED
S315000087D40124FFF7A2BB0CAB009324AA0BAB1349ED
S315000087E4012013F0D5FB9DF830209DF82C10BDF820
S315000087F4900003F015FE46AA02F8D00D03490020A6
S3150000880413F0C6FB0124FFF788BB00BF7F350300C6
S3150000881436350300D8220020DE220020E55B030063
S315000088244D350300BB6003009D5B03005135030017
S3150000883408AB0BAAB449009301200CAB13F0A8FBB8
S3150000884424A813F097F909AB12AACDE900320293D2
S315000088540DF121020DF12203AC49012013F098FB1E
S31500008864129B0AAC03939DF824309DF820200293B2
S315000088749DF82230BDF8301001939DF82130049400
S315000088840093BDF82C0024AB03F0BEFE46AA02F802
S31500008894F20D23469E49002013F07AFB0124FFF7CC
S315000088A43CBB08238DF821308DF826300DF12203C8
S315000088B402930BAB01930DF1210324AC009308AA98
S315000088C412AB944901200AAE0CAD13F061FB9DF87E
S315000088D42230BDF82C20009412A99DF8200002969F
S315000088E4019503F0FFFE46AA0DF1260302F8F40DE6
S315000088F488490093CDE901562346002013F048FB2E
S315000089040124FFF70ABB0CAA8349012013F040FB9C
S3150000891424A813F02FF90DF1260312AACDE900328B
S3150000892402930DF1220209AB7849012013F030FBC2
S3150000893412990BAC01919DF826109DF824309DF8F0
S31500008944222002940091BDF8300024A903F0E8FD2A
S3150000895446AA02F8F00D23466D49002013F018FBD1
S315000089640124FFF7DABA0CAB24AA6C49012013F0F0
S315000089740FFB9DF83010BDF890001CF04FFB46AA83
S3150000898402F8D00D6649002013F002FB0124FFF71C
S31500008994C4BA24A813F0EEF80AAB12AACDE9013240
S315000089A403930DF1260300930DF1220209AB5D49F1
S315000089B4012013F0EDFA12980CAC01909DF82800F2
S315000089C49DF826309DF824209DF8221002940090EC
S315000089D424A803F0B1FD46AA02F8EC0D23464C493F
S315000089E4002013F0D5FA0124FFF797BA24A813F050
S315000089F4C1F80DF1260312AACDE90332059309AB9A
S31500008A0402930DF1220301930CAB009308AA0DF116
S31500008A1421034549012013F0BBFA12980BAC0390CD
S31500008A249DF82600BDF8303002909DF824009DF88C
S31500008A34212001909DF822009DF8201004940090B6
S31500008A4424A803F0ADFD46AA02F8F00D23463049EA
S31500008A54002013F09DFA0124FFF75FBA0CAA0092D6
S31500008A6424AB3249012013F093FA24999DF830007F
S31500008A7403F06DFD46AA02F8D00D2949002013F033
S31500008A8487FA0124FFF749BA0CAB0AAA02930BAB87
S31500008A94CDE90023264924AB012013F079FA9DF889
S31500008AA430309DF82C2024999DF8280003F05CFDB5
S31500008AB446AA02F8D00D1A49002013F069FA0124D7
S31500008AC4FFF72BBA0CAA1449012013F061FA24A863
S31500008AD413F050F80AAA009212AB1449012013F0BD
S31500008AE457FA129B9DF8282024A9BDF8300003F0FC
S31500008AF4BFFD46AA02F8EC0D0949002013F048FA16
S31500008B040124FFF70ABA00BF553503005F35030099
S31500008B146E35030059350300363503005B35030013
S31500008B247F3503005E35030064350300A25B030052
S31500008B346C3503000CAB0DF12202C749012013F07A
S31500008B4427FA24A813F016F80DF1260312AA0193A6
S31500008B540092C24909AA012013F01AFA129A0BAC20
S31500008B6401929DF826209DF82430BDF83010029419
S31500008B7400929DF8220024AA03F0CAFC46AA02F831
S31500008B84F00D2346B649002013F002FA0124FFF73C
S31500008B94C4B908238DF830300CAB0BAA0093B14945
S31500008BA424AB012013F0F4F924A99DF82C0021F03C
S31500008BB437FB46AA02F8D00DAB49002013F0E8F9BA
S31500008BC40124FFF7AAB924AB12AAA349012013F082
S31500008BD4DFF9BDF890109DF8480021F0C7F901248B
S31500008BE4FFF79BB924A81BF04FF846AA02F8D00D4C
S31500008BF49D49002013F0CCF924A812F0E6FF0124C5
S31500008C04FFF78BB9082246AB03F8E82D12AA0092A7
S31500008C14964924AA012013F0BBF99DF8481024A80C
S31500008C2421F03EFB0124FFF778B924AA90490120DC
S31500008C3413F0AEF924981DF041FC0124FFF76DB939
S31500008C440CAA8949012013F0A3F924A812F0B4FF51
S31500008C5424A99DF8300003F07FFD46AA02F8D00D42
S31500008C648149002013F094F90124FFF756B90BABA0
S31500008C7424AA019300927F4912AA012013F088F9CD
S31500008C84249A9DF82C10BDF8480013F018FB46AA48
S31500008C9402F8E80D7449002013F07AF90124FFF76D
S31500008CA43CB912AA7049012013F072F99DF84800E4
S31500008CB403F0A9FD46AA42F8880D6D49002013F079
S31500008CC467F90124FFF729B908238DF8283012AB78
S31500008CD401930AAB00930CAA24AB6749012013F055
S31500008CE457F9BDF8482024A9BDF8300003F089FDE2
S31500008CF446AA02F8EC0D5C49002013F049F9012458
S31500008D04FFF70BB912AA5849012013F041F99DF84F
S31500008D14480019F0E7FF46AA02F8880D52490020D8
S31500008D2413F036F90124FFF7F8B80BF0C9FF46AA89
S31500008D3442F8880D4E49002013F02AF90124FFF762
S31500008D44ECB80BF0C3FF46AA42F8880D4849002048
S31500008D5413F01EF90124FFF7E0B80BF082FF46AAD0
S31500008D6402F8880D4049002013F012F90124FFF798
S31500008D74D4B824AA4149012013F00AF9BDF8900099
S31500008D840BF092FF0124FFF7C8B824AA3649012044
S31500008D9413F0FEF89DF890000BF034FB0124FFF766
S31500008DA4BCB824AA3249012013F0F2F824980BF037
S31500008DB493FF0124FFF7B1B824AA2D49012013F02B
S31500008DC4E7F824980BF08EFF0124FFF7A6B80BF002
S31500008DD401FF0124FFF7A1B80BF0E2FC46AA02F852
S31500008DE4880D2149002013F0D3F80124FFF795B824
S31500008DF424A912A80BF026FF12A812F055FF24A8E6
S31500008E0412F083FF0124FFF788B824A812F028FF84
S31500008E140CAB0BAA1A49012013F0BAF89DF93020BD
S31500008E249DF82C1024A804F09BFF46AA02F8D00D46
S31500008E340D49002013F0ACF80124FFF76EB80BF0CF
S31500008E4403FA46AA02F8880D0749002013F0A0F891
S31500008E540124FFF762B800BF8835030060350300BC
S31500008E646E3503009D5B03007F3503007E350300EA
S31500008E7432350300713503007535030036350300BA
S31500008E843C3503000BF046FB46AA02F8880DC1499F
S31500008E94002013F07DF80124FFF73FB80BF02EFBFA
S31500008EA40124FFF73AB824A812F017FF24A80BF000
S31500008EB4D2FE0124FFF731B812A9102012F0E2FD08
S31500008EC412F01CFE249012F0D5FD0DF195018DF8DB
S31500008ED49400102012F0D6FD0DF1A501102012F019
S31500008EE4D1FD24A912A80BF022FA46AA02F8E80D2D
S31500008EF4A849002013F04CF80124FFF70EB80CF033
S31500008F0472FE0124FFF709B824AAA249012013F02E
S31500008F143FF89DF890000BF041FC0124FEF7FDBFDD
S31500008F2424AA9D49012013F033F824980BF01CFB66
S31500008F3446AA02F8D00D9749002013F029F8012417
S31500008F44FEF7EBBF12F0DAFD249012F093FD0DF15B
S31500008F5495018DF89400102012F094FD0DF1A501F1
S31500008F64102012F08FFD24A80BF0DCF946AA02F8B3
S31500008F74D00D8849002013F00BF80124FEF7CDBF6D
S31500008F840CAB009324AA0BAB8449012013F000F820
S31500008F949DF830209DF92C1024980BF039FA46AA36
S31500008FA402F8D00D7B49002012F0F2FF0124FEF7EF
S31500008FB4B4BF082246AB03F8F02D0BAA00927849F9
S31500008FC412AA012012F0E4FF24A9102012F05AFD7F
S31500008FD424AA9DF82C1012A828F09EF846AA02F896
S31500008FE4E80D6C49002012F0D3FF0124FEF795BF6B
S31500008FF4082246AB03F8EC2D6A4912AA012012F0A6
S31500009004C7FF24A9102012F03DFD24A912A811F0CF
S3150000901460F846AA02F8E80D5E49002012F0B8FF8F
S315000090240124FEF77ABF28F0DBF846AA02F8880D79
S315000090345849002012F0ACFF0124FEF76EBF27F05A
S3150000904453F80124FEF769BF12AA5249012012F00F
S315000090549FFF00239DF848101A46012027F0E6FFDB
S3150000906446AA02F8880D4B49002012F091FF01240C
S31500009074FEF753BF082246AB03F8EC2D0CAA009268
S31500009084474924AA012012F083FF9DF8301024A832
S3150000909427F0C6FF46AA02F8D00D3E49002012F07A
S315000090A477FF0124FEF739BF24A825F079F846AAEC
S315000090B402F8D00D3749002012F06AFFBDF890007F
S315000090C412F0FEFC0DF19201082012F021FD01249C
S315000090D4FEF723BF0CAA2F49012012F059FF24A939
S315000090E49DF8300025F0F6FF46AA02F8D00D29496E
S315000090F4002012F04DFFBDF8900012F0E1FC9DF83F
S31500009104920012F0CDFC0DF19301102012F000FD37
S31500009114299812F0E9FC2A9812F0E6FC9DF8AC00B6
S3150000912412F0BEFC0DF1AD01082012F0F1FC012491
S31500009134FEF7F3BE0CAA1749012012F029FF24A951
S315000091449DF8300027F062FF46AA02F8D00D1149B7
S31500009154002012F01DFFBDF8900012F0B1FC9DF83E
S31500009164920012F09DFC0DF19301102012F0D0FC38
S31500009174299812F0B9FC2A9812F0B6FC9DF8AC00B6
S3150000918412F08EFC0DF1AD01082012F0C1FC012491
S31500009194FEF7C3BE7F35030032350300793503007D
S315000091A47E350300BB6003000CAAB749012012F008
S315000091B4EFFE24A99DF8300027F038F946AA02F8F4
S315000091C4D00DB149002012F0E3FE24A9082012F0C4
S315000091D49FFC26A9102012F09BFC2A9812F084FC0E
S315000091E4BDF8AC0012F06CFCBDF8AE0012F068FCE1
S315000091F40124FEF792BE082446AB03F8EC4D12AAEE
S31500009204A249012012F0C4FE24A912A810F066FF98
S3150000921446AA02F8E80D9C49002012F0B9FE204641
S3150000922424A912F075FC26A9102012F071FC2A98C4
S3150000923412F05AFCBDF8AC0012F042FCBDF8AE00C8
S3150000924412F03EFC0124FEF768BE082246AB03F882
S31500009254E82D8E4924AA012012F09AFE24A826F0AD
S31500009264B1F846AA02F8D00D8749002012F090FE04
S315000092740124FEF752BE08238DF82C300BAB12AA3C
S315000092840093834924AB012012F082FE24A9BDF881
S31500009294480027F01BFD46AA02F8E80D7A4900208B
S315000092A412F076FE0124FEF738BE12F013FC46AC2B
S315000092B424F8880D0DF19201102012F0E3FB0DF154
S315000092C4A201102012F0DEFB12F0D4FB0DF1B30163
S315000092D48DF8B200082012F0D5FB204625F058F888
S315000092E446AA02F8D00D6849002012F051FE012466
S315000092F4FEF713BE08238DF828300BAB01930AAB97
S315000093040DF126020093634912AB012012F040FED0
S3150000931424A9102012F0B6FB24AB12AA9DF826103D
S31500009324002027F083FE46AA02F8E80D56490020DD
S3150000933412F02EFE0124FEF7F0BD12AA52490120B6
S3150000934412F026FE9DF8480026F016F946AA02F801
S31500009354880D4D49002012F01BFE0124FEF7DDBDE9
S3150000936412A812F061FC0AAB0CAA24AC0193009279
S3150000937449490DF12602012012F00AFE0C9B9DF8C4
S3150000938428209DF82610009412A810F08AFE46AAFA
S3150000939402F8EC0D3C49002012F0FAFD204612F0CA
S315000093A438FC0124FEF7B9BD24A9102012F06AFB8B
S315000093B424A827F0A7FC46AA02F8D00D32490020BB
S315000093C412F0E6FD0124FEF7A8BD27F02DF946AA02
S315000093D402F8880D2C49002012F0DAFD0124FEF76C
S315000093E49CBD24A9102012F04DFB24A827F012F9E5
S315000093F446AA02F8D00D2449002012F0C9FD012422
S31500009404FEF78BBD08238DF826308DF828300AAB7D
S3150000941424AC02930DF12603019400930CAA12AB1B
S315000094241E49012012F0B4FD224612A9BDF83000EF
S3150000943427F054F846AA02F8EC0D1349002012F05E
S31500009444A7FD0124FEF769BD08238DF828300AAB71
S315000094540CAA00930E4912AB012012F099FD24A91F
S31500009464102012F00FFB24AA12A9BDF8300027F031
S3150000947471F846AA02F8EC0D0349002012F088FDA3
S315000094840124FEF74ABD00BF7F350300BB6003001D
S315000094948E3503007D3503006035030081350300F6
S315000094A40DF122030DF12102C249012012F070FDD3
S315000094B424A812F056FC0CAA0DF1260303920AAA5C
S315000094C4CDE9013212AA0092BB4909AA012012F081
S315000094D45FFDBDF830209DF8243003929DF82820C6
S315000094E49DF822100292129A9DF8210001929DF88D
S315000094F426200124009224AA0FF0ECFA46AA02F8C8
S31500009504EC0DAE49002012F043FDFEF706BD0CAA91
S31500009514AA49012012F03CFD24A99DF830000FF061
S31500009524BBFE46AA02F8D00DA449002012F030FD75
S3150000953424A812F080FC0124FEF7EFBC24A812F044
S3150000954410FC24A80FF000FF46AA02F8D00D9B4990
S31500009554002012F01DFD0124FEF7DFBC08230AAA31
S31500009564974901208DF81F3012F012FD12A812F04F
S31500009574F8FB0DF11F0303930DF126030CAC0193C5
S3150000958409AB0DF11E02029400938E490DF12203DC
S31500009594012024AD12F0FCFC2946102012F072FAC8
S315000095A408AB0BAA8849012012F0F2FC9DF82010A2
S315000095B4BDF8223005910B999DF81E20CDE9035183
S315000095C4BDF8261002940191BDF824100A98009162
S315000095D412A910F0F9F946AA02F8F70D7749002006
S315000095E412F0D6FC0124FEF798BC10F04BFC0124C3
S315000095F4FEF793BC24A812F0B4FB24A810F01AFBBF
S3150000960446AA02F8D00D6D49002012F0C1FC0124CF
S31500009614FEF783BC0CAA6949012012F0B9FC24A9FF
S315000096249DF8300010F03CFB46AA02F8D00D6349C1
S31500009634002012F0ADFC24A812F04CFC0124FEF725
S315000096446CBC10F0D7FC0124FEF767BC24A812F00A
